S02B0000433A5C55736572735C7068616D645C446F63756D656E74735C4D43555870726573736F4944455F32DD
S113800000180020D580000043810000158700007F
S1138010000000000000000000000000000000005C
S11380200000000000000000000000004781000084
S1138030000000000000000049810000818600006B
S11380404F810000578100005F81000067810000BC
S11380506F810000778100007F810000878100002A
S11380608F810000978100009F810000A78100009C
S1138070AF810000B7810000BF810000C78100000C
S1138080CF810000D7810000DF810000E78100007C
S1138090EF810000F7810000FF81000007820000EB
S11380A00F820000178200001F8200002782000058
S11380B02F820000378200003F82000047820000C8
S11380C040B2000080F8FF1F0400000084F8FF1F86
S11380D0EC00000072B601F07FFB0E4B07E018685D
S11380E059681C000C349A6800F01AF823000A4AF4
S11380F09342F4D306E018681C000834596800F071
S113810018F82300054A9342F5D362B602F004FC42
S1138110FEE7C046C0800000CC800000D480000090
S113812010B5002302E010C810C104339342FAD3FF
S113813010BD002302E0002204C004338B42FAD3B2
S11381407047FEE7FEE7FEE7FEE7FEE7FEE710B551
S1138150FFF7FCFF10BD10B5FFF7F8FF10BD10B519
S1138160FFF7F4FF10BD10B5FFF7F0FF10BD10B519
S1138170FFF7ECFF10BD10B5FFF7E8FF10BD10B519
S1138180FFF7E4FF10BD10B5FFF7E0FF10BD10B519
S1138190FFF7DCFF10BD10B5FFF7D8FF10BD10B519
S11381A0FFF7D4FF10BD10B5FFF7D0FF10BD10B519
S11381B001F0DCFA10BD10B501F0EAFA10BD10B5FB
S11381C001F0F8FA10BD10B5FFF7C0FF10BD10B5EF
S11381D0FFF7BCFF10BD10B5FFF7B8FF10BD10B519
S11381E0FFF7B4FF10BD10B5FFF7B0FF10BD10B519
S11381F0FFF7ACFF10BD10B5FFF7A8FF10BD10B519
S1138200FFF7A4FF10BD10B5FFF7A0FF10BD10B518
S1138210FFF79CFF10BD10B5FFF798FF10BD10B518
S1138220FFF794FF10BD10B5FFF790FF10BD10B518
S1138230FFF78CFF10BD10B5FFF788FF10BD10B518
S1138240FFF784FF10BD10B5FFF780FF10BDFFFFDF
S1138250FFFFFFFFFFFFFFFFFFFFFFFFFFFFFFFF2A
S1138260FFFFFFFFFFFFFFFFFFFFFFFFFFFFFFFF1A
S1138270FFFFFFFFFFFFFFFFFFFFFFFFFFFFFFFF0A
S1138280FFFFFFFFFFFFFFFFFFFFFFFFFFFFFFFFFA
S1138290FFFFFFFFFFFFFFFFFFFFFFFFFFFFFFFFEA
S11382A0FFFFFFFFFFFFFFFFFFFFFFFFFFFFFFFFDA
S11382B0FFFFFFFFFFFFFFFFFFFFFFFFFFFFFFFFCA
S11382C0FFFFFFFFFFFFFFFFFFFFFFFFFFFFFFFFBA
S11382D0FFFFFFFFFFFFFFFFFFFFFFFFFFFFFFFFAA
S11382E0FFFFFFFFFFFFFFFFFFFFFFFFFFFFFFFF9A
S11382F0FFFFFFFFFFFFFFFFFFFFFFFFFFFFFFFF8A
S1138300FFFFFFFFFFFFFFFFFFFFFFFFFFFFFFFF79
S1138310FFFFFFFFFFFFFFFFFFFFFFFFFFFFFFFF69
S1138320FFFFFFFFFFFFFFFFFFFFFFFFFFFFFFFF59
S1138330FFFFFFFFFFFFFFFFFFFFFFFFFFFFFFFF49
S1138340FFFFFFFFFFFFFFFFFFFFFFFFFFFFFFFF39
S1138350FFFFFFFFFFFFFFFFFFFFFFFFFFFFFFFF29
S1138360FFFFFFFFFFFFFFFFFFFFFFFFFFFFFFFF19
S1138370FFFFFFFFFFFFFFFFFFFFFFFFFFFFFFFF09
S1138380FFFFFFFFFFFFFFFFFFFFFFFFFFFFFFFFF9
S1138390FFFFFFFFFFFFFFFFFFFFFFFFFFFFFFFFE9
S11383A0FFFFFFFFFFFFFFFFFFFFFFFFFFFFFFFFD9
S11383B0FFFFFFFFFFFFFFFFFFFFFFFFFFFFFFFFC9
S11383C0FFFFFFFFFFFFFFFFFFFFFFFFFFFFFFFFB9
S11383D0FFFFFFFFFFFFFFFFFFFFFFFFFFFFFFFFA9
S11383E0FFFFFFFFFFFFFFFFFFFFFFFFFFFFFFFF99
S11383F0FFFFFFFFFFFFFFFFFFFFFFFFFFFFFFFF89
S1138400FFFFFFFFFFFFFFFFFFFFFFFFFEFFFFFF79
S113841080B584B000AF78600023FB6001235B4229
S1138420BB607A68064B1100180001F09CFFBA6823
S1138430F9687B68180001F08BFF00BEFDE7C046B9
S11384406CAA000080B58AB000AFB96011007B60EF
S11384500F23FB18021C1A700E203B180A1C1A70FA
S11384603B181B78012B01D0012335E01C4B0E2255
S1138470BA1812781A7414217B187A681A607B1857
S1138480BA685A607B1800221A727B1800225A724A
S11384907B1801229A727B180122DA727B1800225F
S11384A01A737B1800225A737B180F22BA18127899
S11384B09A737B180022DA737B1800221A747A18D4
S11384C0074B1100180001F053FA054B054A9A6056
S11384D0034B054ADA6000231800BD460AB080BD8C
S11384E084F8FF1F819A0000099A000080B584B0C7
S11384F000AF786039600023FB600A4B1B7C002BC3
S113850002D101235B4208E03A687968064B1800FF
S113851001F0C7FF0300FB60FB681800BD4604B010
S113852080BDC04684F8FF1F2D85000080B582B051
S113853000AF7860084B1B7C002B02D101235B4207
S113854006E0054B9B68391D034801229847012327
S11385501800BD4602B080BD84F8FF1F90B583B0FB
S113856000AF02003960FB1D1A70FB1D1B787F2BC6
S113857028D82F4AFB1D1B785BB29B08C0339B0095
S11385809B58FA1D1278110003220A40D200FF21E1
S113859091400A00D2431A4011003B689B01FF221C
S11385A01A40FB1D1B78180003230340DB009A408C
S11385B01F48FB1D1B785BB29B080A43C0339B001A
S11385C01A5031E01B4AFB1D1B7819000F230B4086
S11385D0083B9B0806339B00D31804331B68FA1D21
S11385E01278110003220A40D200FF2191400A00B0
S11385F0D2431A4011003B689B01FF221A40FB1D25
S11386001B78180003230340DB009A400948FB1D34
S11386101B781C000F232340083B9B080A430633A6
S11386209B00C31804331A60C046BD4603B090BD16
S113863000E100E000ED00E080B582B000AF7860BA
S11386407B685A1E80235B049A4201D3012310E005
S11386500A4B7A68013A5A6001235B4203211800ED
S1138660FFF77CFF054B00229A60044B07221A6037
S113867000231800BD4602B080BDC04610E000E0F3
S113868080B500AF054B1B68002B04D0034B1B685F
S11386905A1E024B1A60C046BD4680BD98F8FF1FA3
S11386A080B582B000AF7860064B7A681A60C04625
S11386B0044B1B68002BFBD1C046C046BD4602B02C
S11386C080BDC04698F8FF1F80B500AF02F01DF9C9
S11386D002F014F901F038FA0C4B1B68FA229100ED
S11386E0180002F049F903001800FFF7A5FF031E64
S11386F000D0FEE7FA239B001800FFF7D1FF044BDC
S11387002021180002F0BAF8F4E7C04680F8FF1FF1
S113871040F00F4004207146084202D0EFF3098074
S113872001E0EFF3088081690A88074B9A4200D080
S1138730FEE7023181610168012901D0002100E0D6
S1138740202101607047C046ABBE000080B586B0F2
S113875000AF78607B681B683B613B69002B03DBDF
S1138760214B1800FFF754FE0F23FB1800221A7048
S11387703B691B0E07221340052B23D02BD8032B58
S113878017D028D8012B02D0022B09D023E00F23C5
S1138790FB181B78180000F013F903007B611DE03F
S11387A00F23FB181B78180000F0C6F903007B6147
S11387B014E00F23FB181B78180000F0C3FA030021
S11387C07B610BE00F23FB181B78180000F0D6FB2D
S11387D003007B6102E000237B61C0467B691800D3
S11387E0BD4606B080BDC04680AA000080B586B0F4
S11387F000AF78607B68002B03D1434B1800FFF770
S113880007FE17217B1800221A707B689B7A002BC5
S11388102ED07B681A6880231B029A4208D37B6897
S11388201B683A4A934203D87B1801221A701FE04E
S11388307B681B68364A934209D97B681B68354AB2
S1138840934204D81723FB1802221A7010E07B68A5
S11388501B68314A934209D97B681B682F4A9342AB
S113886004D81723FB1803221A7001E0042347E0FD
S113887000F058F803003B613B69002B01D03B69D1
S11388803EE07B685B7A1A022549E023DB001A404C
S113889082235B00CA507B689B7A18001723FB185D
S11388A01B781B01302213401D4902001A43842304
S11388B05B00CA500F203B187A68127A1A703B1872
S11388C03A18127801210A431A7015493B181A788C
S11388D080235B00CA50C046114A80235B00D258F3
S11388E080235B041340F7D00D4A80235B00D258E9
S11388F07B685B680A491A4380235B00CA500023E3
S11389001800BD4606B080BDACAA0000409C000023
S11389103F420F0000127A00FF117A000048E8017C
S11389200040064080B582B000AF114A80235B004E
S1138930D3583B603A6880239B04134002D00D4B0C
S11389407B600FE03A6880231B04134002D00223AB
S11389507B6007E0064980235B008022D204CA5072
S113896000237B607B681800BD4602B080BDC04612
S1138970004006403508000080B582B000AF0D4AC3
S113898080235B00D25880235B0413400BD00A4B36
S11389901B68002B03D1094B1800FFF739FD064B68
S11389A01B687B6001E000237B607B681800BD4688
S11389B002B080BD004006409CF8FF1FC8AA00001A
S11389C080B586B000AF0200FB1D1A70FFF7D4FF1C
S11389D00300FB6000237B61FB68002B0FD0FB1DB1
S11389E01B78002B08D10E4A82235B00D3581B0A44
S11389F0072213407B6102E000237B61C0467B6950
S1138A00002B06D07B69013BFA68DA4013003B6116
S1138A1001E000233B613B691800BD4606B080BD00
S1138A200040064080B584B000AF78607B68002BBE
S1138A3003D11A4B1800FFF7EBFC00F033F80300E6
S1138A40FB60FB68002B23D17B681B791A02144955
S1138A50E023DB001A4081239B00CA507B685B79CA
S1138A601A000F4901231A4082239B00CA507B68D5
S1138A701B680B4901221A4380239B00CA50C0463D
S1138A80074A80239B00D25880235B041340F7D00D
S1138A90FB681800BD4604B080BDC046E8AA0000CB
S1138AA00040064080B582B000AF104A80239B008E
S1138AB0D3583B603A6880239B04134002D00C4B8C
S1138AC07B600EE03A6880231B04134002D002232B
S1138AD07B6006E0054A80239B000021D1500023DF
S1138AE07B607B681800BD4602B080BD0040064034
S1138AF03508000080B582B000AF0D4A80239B008A
S1138B00D25880235B0413400AD0094A82239B0075
S1138B10D35801221A40074B9200D3587B6001E0DE
S1138B2000237B607B681800BD4602B080BDC04650
S1138B3000400640D0B1000080B586B000AF02000E
S1138B40FB1D1A70FFF7D6FF0300FB6000237B6157
S1138B50FB68002B0FD0FB1D1B78002B08D10E4A9D
S1138B6081239B00D3581B0A072213407B6102E038
S1138B7000237B61C0467B69002B06D07B69013BE7
S1138B80FA68DA4013003B6101E000233B613B6972
S1138B901800BD4606B080BD0040064080B584B0D4
S1138BA000AF78607B68002B03D13E4B1800FFF7C1
S1138BB02FFC00F07BF80300FB60FB68002B01D066
S1138BC0FB686AE07B681B791A023749E023DB0003
S1138BD01A40C1239B00CA507B685B791A00324952
S1138BE003231A40C2239B00CA507B689B68002B56
S1138BF03CD07B689B68DB781A02E023DB001A40D8
S1138C007B689B689B78190003230B4026491A4311
S1138C10C3239B00CA507B689B681A8880235B002F
S1138C209A4211D17B689B681B791A02FC239B0131
S1138C301A407B689B685B7919007F230B401A49B3
S1138C401A43C6239B00CA507B689B681B88164A3C
S1138C501900C0239B00D150134AC0239B00D25853
S1138C608023DB04134001D0012316E00E4AC02305
S1138C709B00D2587B681B6813430B4901221A439B
S1138C80C0239B00CA50C046074AC0239B00D25849
S1138C9080235B041340F7D000231800BD4604B0C2
S1138CA080BDC04604AB00000040064080B582B0E1
S1138CB000AF114AC0239B00D3583B6000237B6064
S1138CC03A6880239B04134002D00C4B7B600DE078
S1138CD03A6880231B04134002D002237B6005E022
S1138CE00549C0239B008022D204CA507B68180027
S1138CF0BD4602B080BDC0460040064035080000B5
S1138D0080B582B000AF0D4AC0239B00D2588023A7
S1138D105B0413400AD0094AC2239B00D3580322A0
S1138D201A40074B9200D3587B6001E000237B601C
S1138D307B681800BD4602B080BDC04600400640B6
S1138D40D8B1000080B586B000AF0200FB1D1A70D8
S1138D50FFF7D6FF0300FB6000237B61FB68002B59
S1138D600FD0FB1D1B78002B08D10E4AC1239B009A
S1138D70D3581B0A072213407B6102E000237B6166
S1138D80C0467B69002B06D07B69013BFA68DA4058
S1138D9013003B6101E000233B613B691800BD46C1
S1138DA006B080BD0040064080B584B000AF786056
S1138DB07B68002B03D1464B1800FFF729FB00F01A
S1138DC091F80300FB60FB68002B01D0FB687AE09C
S1138DD07B685B781A023F49E023DB0013403E4A7C
S1138DE08B507B689B781A003A4903231A40A123CD
S1138DF0DB00CA507B685B68002B38D07B685B68FB
S1138E001B791A02F8235B011A407B685B68DB78E4
S1138E10190003230B401A437B685B689B78190491
S1138E2080235B020B402B4913432C4A8B507B68F5
S1138E305B681A8880235B009A4206D17B685B6872
S1138E405B79244A1900264BD1507B685B681B88E8
S1138E50204A1900A023DB00D1501E4AA023DB00C6
S1138E60D2588023DB04134001D001232BE0194A9C
S1138E70A023DB00D3587A68127801210A43D2B2C6
S1138E8014491A43A023DB00CA50C046114AA02348
S1138E90DB00D25880235B041340F7D07B685B6807
S1138EA0002B0FD07B685B681A88C0239B009A4212
S1138EB008D1C046074AA023DB00D2588023DB0038
S1138EC01340F7D000231800BD4604B080BDC0464F
S1138ED020AB000000400640040500000C05000023
S1138EE01405000080B582B000AF114AA023DB0056
S1138EF0D3583B603A6880239B04134002D00D4B47
S1138F007B600FE03A6880231B04134002D00223E5
S1138F107B6007E00649A023DB008022D204CA500C
S1138F2000237B607B681800BD4602B080BDC0464C
S1138F30004006403508000080B582B000AF0D4AFD
S1138F40A023DB00D25880235B0413400AD0094AD3
S1138F50A123DB00D35803221A40074B9200D358B5
S1138F607B6001E000237B607B681800BD4602B093
S1138F7080BDC04600400640DCB1000080B586B02C
S1138F8000AF0200FB1D1A70FFF7D6FF0300FB6061
S1138F9000237B61FB68002B0ED0FB1D1B78002B8C
S1138FA007D10E4A0E4BD3581B0A072213407B618C
S1138FB002E000237B61C0467B69002B06D07B69FD
S1138FC0013BFA68DA4013003B6101E000233B6196
S1138FD03B691800BD4606B080BDC046004006404F
S1138FE00405000080B584B000AFF860B9607A6011
S1138FF07B68002B03D1134B1800FFF709FA7B6839
S11390001B78002B0AD1FB685B690121BA68914087
S11390100A00D2431A40FB685A610FE07B685A7811
S1139020B968FB68180001F035FCFB685A69012136
S1139030BB6899400B001A43FB685A61C046BD46A1
S113904004B080BD3CAB000080B582B000AF786056
S11390507B681B68002B03DB074B1800FFF7D8F96C
S11390607B681A687B688021C9050A431A60C04678
S1139070BD4602B080BDC0465CAB000080B584B084
S113908000AF78600023FB600BE00D4BFA689200A0
S1139090D3587A689A4201D1FB680DE0FB6801332A
S11390A0FB60FB68022BF0D9FB68022B03D9054B4C
S11390B01800FFF7ADF9FB681800BD4604B080BD89
S11390C0E0B10000ACAB000080B58CB000AFF8603C
S11390D0B9607A60BB68002B03D1CE4B1800FFF750
S11390E097F9BB681B68002B03D1CB4B1800FFF723
S11390F08FF9BB681B7A032B03D9C84B1800FFF701
S113910087F9BB685B7A032B03D9C54B1800FFF7BB
S11391107FF90023FB62BB681B68FB612323FB18F8
S113912000221A702623FB1800221A802223FB181F
S113913004221A7057E07B685800BB681B6822221F
S1139140BA1812785343190001F016FC03000133D6
S11391505A0824217B181A800A00BB181B88002B8C
S113916003D1BB1801221A8009E024217B181A8834
S113917080239B019A4202D37B18AA4A1A80222395
S1139180FB181B782422BA181288534319007868F4
S113919001F0F2FB03007B61BB681B687A699A42A9
S11391A004D9BB681B687A69D31A03E0BB681A68E0
S11391B07B69D31A3B613A69FB699A420DD83B69D2
S11391C0FB612323FB182222BA1812781A70262373
S11391D0FB182422BA1812881A8022217B181A78C4
S11391E07B1801321A702223FB181B78202BA2D97A
S11391F0BB681B686421180001F0BEFB03001A0061
S113920013005B009B18FA699A4202D9864BFB62F1
S1139210FAE0FB681800FFF731FF0300BB61834BE2
S1139220BA699200D3581800FFF70EFFFB681800C4
S113923001F04AFBFB681B69BB622322BB181B7845
S1139240032B08D9BB181B78072B04D8BB6A8022D0
S113925092021343BB62BB6A754A1340BB62232369
S1139260FB181B78013B1A06F8235B051340BA6A06
S11392701343BB62BB6A5B0B5B03BB622623FB1815
S11392801B88DB04DA0CBB6A1A43FB681A61FB68AF
S11392901B69684A1A40FB681A61FB689B69664A45
S11392A01340BB62BB681B791900BB68DB7B1A02E5
S11392B0E023DB0013400A001A43BB689B7B9B003E
S11392C004210B401343BA6A1343BB62BB685B7946
S11392D0012B0ED1BB681B79002B04D0BB6A574A03
S11392E01340BB620DE0BB6A802212011343BB62D0
S11392F007E0BB681B79002B03D0BB6A1022134321
S1139300BB62FB68BA6A9A61FB681B694C4A1340EA
S1139310BB62BB68DB795A0380239B011A40BB6A9A
S11393201A43FB681A61BB685B7A1B04BA68127A39
S11393301A43FB68DA62FB689B6A88221A43FB685B
S11393409A62FB689B6AC02212021A43FB689A6203
S11393503C4BBB62BB6A802212061343BB62BB6AEE
S1139360C02212021343BB62FB685A6ABB685B7B70
S11393701B0110211940BB681B7B5B0120200340AB
S11393800B431A43FB685A62BB689B7A002B05D0D7
S1139390FB685B6A08221A43FB685A62BB68DB7A83
S11393A0002B05D0FB685B6A01221A43FB685A62F2
S11393B0BB689B79002B05D0BB6A802292051343BE
S11393C0BB6203E0BB6A1B4A1340BB62FB685A6979
S11393D0BB6A1A43FB685A61FB689B69BB62BB6842
S11393E01B7C002B04D0BB6A802212031343BB6294
S11393F0BB685B7C002B04D0BB6A8022D20213437F
S1139400BB62FB68BA6A9A61FB6A1800BD460CB07D
S113941080BDC046E4AB000008AC000038AC0000DE
S113942094AC0000FF1F000021050000ECB1000017
S1139430FFFFFFE0FFFFFFDFE8F8FFFFFFF7FFFF9D
S1139440FFDFFFFF00001F4080B582B000AF7860EF
S11394507B68002B03D11E4B1800FEF7D9FF7B68F5
S113946014220021180001F061FA7B68E122520203
S11394701A607B6800221A717B6800225A717B682B
S113948000229A717B680022DA717B6800221A72CA
S11394907B6800225A727B6800229A727B680022E1
S11394A0DA727B6800225A737B6800221A737B6825
S11394B000229A737B680022DA737B6800221A7494
S11394C07B6800225A74C046BD4602B080BDC046C7
S11394D0F0AC000080B584B000AF78607B685B6955
S11394E0FB607B689B6A1B0CC3221340FA6813431E
S11394F0FB60FB68034A1340FB60FB681800BD4631
S113950004B080BDC3C0FFC180B584B000AF786033
S113951039603B681A4A13403B603B68032213409E
S113952011D07B689B6ABB60BB68164A1340BB6062
S11395303B681A04C0239B021340BA681343BB6000
S11395407B68BA689A627B685A69F8239B05134062
S11395503A681343BB607B68BA685A617B68180039
S1139560FFF7B8FF02003B68134002D0064BFB60D4
S113957001E00023FB60FB681800BD4604B080BD19
S113958003C01FC0FF3FFCFF1A05000080B586B072
S113959000AFF860B9607A60BB68002B03D1154B4B
S11395A01800FEF735FFBB687B617B683B6111E007
S11395B0C046FB685A6980231B041340F9D07B69B9
S11395C01B781A00FB68DA617B6901337B613B69B4
S11395D0013B3B613B69002BEAD1C046FB685A69F9
S11395E08023DB031340F9D000231800BD4606B0E6
S11395F080BDC04614AD000080B58AB000AFF860ED
S1139600B9607A60BB68002B03D1534B1800FEF796
S1139610FFFE00237B62BB683B62FB689B69FB61C6
S1139620FA6980231B01134007D1FB691022134000
S113963005D1FB690222134001D0012200E000227F
S11396401B23FB181A701A7801210A401A7076E05D
S1139650FB681800FFF73EFF03007B617A698023F3
S11396601B0313400DD080231A03FB68110018005C
S1139670FFF74AFF031E01D1384B00E0384B7B62F1
S113968041E07A6980235B0213400DD080235A02A3
S1139690FB6811001800FFF737FF031E02D1A42353
S11396A0DB0000E02E4B7B627A6980239B0213402F
S11396B00CD080239A02FB6811001800FFF724FFE6
S11396C0031E01D1274B00E0254B7B627A6980237E
S11396D0DB0213400CD08023DA02FB68110018006F
S11396E0FFF712FF031E01D11F4B00E01C4B7B62EE
S11396F07B6A002B06D1FB68DB6A1B0E0722134032
S1139700A6D000E0C0467B6A002B1ED11B23FB18A9
S11397101B78002B0BD0FB68DB69DBB27F22134084
S1139720DAB23B6A1A703B6A01333B6207E0FB68BA
S1139730DB69DAB23B6A1A703B6A01333B627B68CD
S11397405A1E7A60002BD6D100E0C0467B6A18000E
S1139750BD460AB080BDC04638AD00001D050000FE
S11397601A0500001F0500001E05000080B500AFAB
S1139770044B1A68044B1B68044819009047C04600
S1139780BD4680BDACF8FF1FA0F8FF1F00A0064037
S113979080B500AF044B5A68044B5B680448190059
S11397A09047C046BD4680BDACF8FF1FA0F8FF1F20
S11397B000B0064080B500AF044B9A68044B9B6828
S11397C0044819009047C046BD4680BDACF8FF1F51
S11397D0A0F8FF1F00C0064080B500AF104B1A6808
S11397E080239B01134003D00D4B0E4A5A6005E0C1
S11397F00B4B0D4A5A600A4B0C4A5A60084B0C4AF0
S11398009A60074B1B68A02293431A00044B202143
S11398100A431A6001F06DF8C046BD4680BDC046DB
S11398200020054020C528D920C5000028D9000003
S1139830FFFF000080B584B000AF78607B68002B28
S113984004D10E23FB1800221A8003E00E23FB1818
S1139850044A1A800E23FB181B881800BD4604B066
S113986080BDC046AF2F000090B58BB000AF7860CC
S113987039602623FB1800221A800C243B19180097
S1139880FFF7E2FD3B685A6821007B181A603B68C9
S11398901A7A7B181A713B685A7A7B18DA713B681A
S11398A09B7A5A1E9341DAB27B185A743B68DB7A6E
S11398B05A1E9341DAB27B181A743B68DB7B002B87
S11398C00DD03B68DB7B1A1CD3B2042B01D90423D3
S11398D01A1CD3B2013BDAB20C23FB181A723B6890
S11398E01B7C002B0DD03B681B7C1A1CD3B2042BB1
S11398F001D904231A1CD3B2013BDAB20C23FB189E
S11399005A723B681B7B5A1E9341DAB20C217B18B6
S11399109A723B685B7B5A1E9341DAB27B18DA7207
S11399207B1801229A737B180122DA733B689B7BB4
S11399301A000E4B9200D0583B681A687B18190025
S1139940FFF7C2FB03003B623B6A002B07D02623D0
S1139950FC183B6A1800FFF76DFF030023802623E1
S1139960FB181B881800BD460BB090BDF8B1000071
S1139970B0B584B000AF786039607B68002B03D148
S11399801C4B1800FEF744FD3B68002B03D11A4B17
S11399901800FEF73DFD3B689B7B022B03D9174B58
S11399A01800FEF735FD3B689B7B1A00144B9200B0
S11399B0D358002B03D1134B1800FEF729FD0E25B5
S11399C07C193A687B6811001800FFF74DFF03000B
S11399D023807B191B88002B05D17B68BB603B6807
S11399E09A7BBB681A700E23FB181B881800BD46AF
S11399F004B0B0BD5CAD000088AD0000B8AD00009F
S1139A00F8B1000024AE000080B586B000AFF86065
S1139A10B9607A60FB68002B03D1154B1800FEF780
S1139A20F7FCBB68002B03D1124B1800FEF7F0FCC7
S1139A307B68002B03D1104B1800FEF7E9FCFB6890
S1139A407B617B691B781A000C4B9200D3587A68AF
S1139A50B9681800FFF7D0FD03003B613B691800AB
S1139A60FFF7E8FE03001800BD4606B080BDC046FF
S1139A7074AE0000A0AE0000C8AE0000F8B1000053
S1139A8080B586B000AFF860B9607A60FB68002BDF
S1139A9003D1124B1800FEF7BBFCBB68002B03D1AB
S1139AA00F4B1800FEF7B4FC7B68002B03D10D4B61
S1139AB01800FEF7ADFCFB687B617B691B781A001C
S1139AC0094B9200D3587A68B9681800FFF75EFD15
S1139AD000231800BD4606B080BDC046F0AE0000AD
S1139AE01CAF000044AF0000F8B1000080B584B0A2
S1139AF000AF78600A00FB1C1A707B681B68FB606F
S1139B00FB68002B03DB0D4B1800FEF781FCFB68A0
S1139B100B4A1A40FB1C1B781906E023DB040B409C
S1139B201343FB607B68FA6806490A401A607B6845
S1139B30FA681A60C046BD4604B080BD6CAF000030
S1139B40FFFFFFF8FFFFFFBF80B582B000AF0B4BF4
S1139B5001211800FFF7CAFF084B1800FEF7F6FDB5
S1139B6003007B607B68E122510201220020FEF7A2
S1139B7069FCC046BD4602B080BDC046A85106403F
S1139B8080B584B000AF78600A00FB1C1A707B6853
S1139B901B68FB60FB68002B03DB0D4B1800FEF712
S1139BA037FCFB680B4A1A40FB1C1B781906E023A0
S1139BB0DB040B401343FB607B68FA6806490A40E8
S1139BC01A607B68FA681A60C046BD4604B080BD5E
S1139BD06CAF0000FFFFFFF8FFFFFFBF80B584B04C
S1139BE000AF78607B68002B03D1074B1800FEF7A9
S1139BF00FFC7B68FB60FB68044A1B685361C0462A
S1139C00BD4604B080BDC046E8AF00000040064039
S1139C1080B584B000AF78607B68002B03D1074B1C
S1139C201800FEF7F5FB7B68FB60054AFB681269C8
S1139C301A60C046BD4604B080BDC04654B00000A2
S1139C400040064080B582B000AF7860034B7A686C
S1139C501A60C046BD4602B080BDC0469CF8FF1FD6
S1139C60B0B586B000AF78600C243B192D4A03CA06
S1139C7003C30023BB6008257B191A780F218A438C
S1139C80111C03220A431A700B23FB181A780F21A4
S1139C908A43111C02220A431A703B191800FEF76A
S1139CA0C1FE7B191800FFF799FF1423FB18180055
S1139CB0FFF7AEFF1723FB181B781B071B0FDAB245
S1139CC00B243B191B781B071B0FDBB29A42ECD108
S1139CD07B681800FEF762FF3B191A780F218A434C
S1139CE0111C03220A431A700823FB181800FFF7FB
S1139CF075FF1423FB181800FFF78AFF1723FB18BE
S1139D001B781B071B0FDAB20B23FB181B781B07EE
S1139D101B0FDBB29A42ECD1C046C046BD4606B02A
S1139D20B0BDC04604B2000080B582B000AF1D4B88
S1139D301800FEF75BFD1C4B1800FFF783FF1B4B5D
S1139D401800FFF78DFF1A4B1800FEF76BFE194B36
S1139D501800FFF729F8184B1800FFF73FFF3B1DC9
S1139D601800FFF755FFFB1D1B781B071B0FDBB209
S1139D7005229342F3D1114B114A1A60114B012170
S1139D801800FFF7FDFE104B01211800FFF7F8FE45
S1139D900E4B01211800FFF7F3FEC046BD4602B08A
S1139DA080BDC04610B2000000127A0024B2000048
S1139DB01CB2000030B200000CB2000080F8FF1F9B
S1139DC0006CDC02EC50064098510640A851064055
S1139DD080B582B000AF78607B681B68002B03DB22
S1139DE0074B1800FEF714FB7B681A687B68802118
S1139DF0C9050A431A60C046BD4602B080BDC046CC
S1139E00C0B0000080B586B000AFF860B9607A6079
S1139E107B68002B03D1084B1800FEF7F9FABB68E6
S1139E209B00FA68D3187B617B697A6812881A8070
S1139E30C046BD4606B080BD64B1000080B582B0A6
S1139E4000AF124B1800FFF7C3FF3B1D01221A702D
S1139E503B1D00225A703B1D0D481A000521FFF7D7
S1139E60C1F83B0000221A803B005A7807218A433C
S1139E70111C01220A435A703B0006481A000521AE
S1139E80FFF7C0FFC046BD4602B080BD2851064062
S1139E9040F00F4000A0044070B5184C184922004F
S1139EA0002000F0ABF8802380225B00002120001A
S1139EB0D20000F02FF8134C134D2200290001208A
S1139EC000F09CF8802380225B0000212000D20057
S1139ED000F020F80D4B1B68022B0DDD0C4C290003
S1139EE02200022000F08AF8802380220021200032
S1139EF05B00D20000F00EF870BDC046BCF8FF1F36
S1139F003CB20000F8F8FF1F3EB2000038B2000077
S1139F1034F9FF1FF0B5C56804000120AE070CD06A
S1139F2080208000824213D08020C000824205D06D
S1139F308020400082420BD0FF38F0BD2100012375
S1139F4024311543002021612160E361E560F4E7D9
S1139F50024F5E1E0120BE42F3D9EEE7FEFFFF0072
S1139F600300032110B51A000B4219D1114C1368D8
S1139F70114959189943214219D0DCB2511C002CC3
S1139F800BD0FF242402911C234206D0FF21090494
S1139F900B40591E8B41D318D91C0130081A05E017
S1139FA001335C1E2478002CDDD1101A10BD04325C
S1139FB0DDE7C04680808080FFFEFEFE2022C3686D
S1139FC010B59343C3608269836A04009A420CD03B
S1139FD000F04EF8E268074B1A4010231343E36085
S1139FE0A36AA3612369E3622360E368024A13401E
S1139FF0E36010BDEFCFFFFFBFBFFFFFF7B50D005C
S113A00001901000140000F095F82B78722B1CD0EE
S113A010772B1DD0612B26D1144A593B0220691C91
S113A020032784460426012508782B2813D06228A8
S113A03016D0E260019A62611B0704D50222002156
S113A040200000F0C5F82000FEBD00230122E5E752
S113A05004230222E2E760463A4303430131E3E783
S113A06032432B43FAE70024EDE7C04602800000A8
S113A07070B50400134AE36805691A400168C06AB0
S113A080E26082221A40022A02D00120404270BDBE
S113A090DB030CD5814200D201008D4209D100239B
S113A0A0094AA360E368E56213402560E360002089
S113A0B0EDE722002800491B00F008F80028EED044
S113A0C0E3E7C046FFFFF7FFFFFFFEFFF7B5D568E4
S113A0D00F00140056690190EB0205D510233000DF
S113A0E01D4300F0B1FCA061104B1D420FD03000A5
S113A0F0A16900F0B2FC002806DA80230120E2689E
S113A10040421343E3600FE0094B1D40E5603A0011
S113A1103000019900F0A7FC4300A2695B08FB1A18
S113A120D318A3610028E8D1FEBDC0461000020088
S113A130EFFFFDFFF0B5C56804004769066989B003
S113A140AB0720D02B0716D400F022F8380000F01B
S113A15078FC2B0502D5300000F0ECFB0B4BAD0D69
S113A160AD059D4207D120226846216A00F078FCA3
S113A170684600F0F5FB3C220021200000F0D6FBED
S113A180002009B0F0BD01204042FAE7000080AD94
S113A190F8B5002812D000F0B7F805002800F8BD83
S113A1A038006043084BC01800F0AEF8002801D016
S113A1B001256D420134A642F2DCEFE7034B0400B3
S113A1C005003C271E68F6E7BCF8FF1F38B2000004
S113A1D0F7B54369C6680193364B04000D0000923D
S113A1E01E420BD0019800F032FC071E06D1009BE2
S113A1F0012B06D0022B2DD0002B06D002273800CD
S113A200FEBD200000F05AF82D18002DF6DBB30433
S113A21004D52368E26A9A4200D2E362A369AB429E
S113A2200EDCE16A22688A4200D20A002169D01851
S113A2300091401AA84203DB206B1918A94228DCBC
S113A24020231E430023A562A36063601A4B1E40B3
S113A250E660D4E7019800F0F7FBE268002804DA2E
S113A260802313430127E360C9E7E16A2368994225
S113A27000D90B00A1695B1821695B1A920603D50A
S113A280A26A934200DA1300834200DA0300ED1855
S113A290BBE7EB1AB50701D5181AA060F00703D580
S113A2A00099521A9A1A6260009AD11820232160E8
S113A2B09E43CBE703001000BFCFF7FFC168020045
S113A2C08B0705D1212201200E4B40421A607047B2
S113A2D020230B4009030AD5002B02D0806A0138E1
S113A2E0F5E793690068C0181369C01AF7E7002BF3
S113A2F001D0806AEBE70368816900695B18181A6A
S113A300E5E7C046B8F8FF1FC36870B503221E0016
S113A31004001640134211D09B0611D5856AFFF73D
S113A3204DFEE368094A20001340E360FFF7A0FEF6
S113A3300022060029002000FFF74AFF300070BD0C
S113A34083690568ED180369ED1AEAE7FFCFFFFF9B
S113A35080B584B000AFF860B9607A60002318005B
S113A360BD4604B080BD0FB480B582B000AF0023F9
S113A3707B601423FB183B603A683B6911001800AA
S113A380FEF7B4F803007B607B681800BD4602B09A
S113A39080BC08BC04B0184780B586B000AFB96073
S113A3A07A603B600F23FB18021C1A70BB687B6148
S113A3B00DE00F23FB181A783B6A100098473B689E
S113A3C01B685A1C3B681A607B6901337B617A699C
S113A3D07B689A42EDDBC046C046BD4606B080BDF0
S113A3E080B58EB000AFF860B9607A603B6000233E
S113A3F0FB62FB68BB62BB6A5A1CBA6200221A7019
S113A40000237B6000237B6200233B620023FB610B
S113A41000237B630023BB6100233B6300237B6138
S113A420BB681B687B637B6B002B32D1BB6A302219
S113A4301A70FB6A0133FB62FB6A2EE03B68190069
S113A440786B00F099FA0300BB613B68BA69534327
S113A4507A6BD31A3B633B6B092B03D83B6B3033CA
S113A4603B630BE04023FB181B78002B01D04123F6
S113A47000E061233A6B9B180A3B3B63BB697B6337
S113A480BB6A5A1CBA623A6BD2B21A70FB6A0133C5
S113A490FB627B6B002BD1D1FB6A1800BD460EB06A
S113A4A080BD90B59DB002AFF860B9607A600023BA
S113A4B03B660023FB650023FB614A23FB18002253
S113A4C01A7000237B61BB687B667B6E1B78002B54
S113A4D000D1CDE149217B187A6E12781A700A00F6
S113A4E0BB181B78252B0BD0BB181A78FB681000FF
S113A4F09847FB690133FB617B6E01337B66B6E1F0
S113A5004B23FB1801221A7000237B655B23FB1885
S113A51000221A7022E07B6E01337B6649217B188E
S113A5207A6E12781A707B181B782F2B0FD97B1830
S113A5301B78392B0BD87A6D13009B009B185B009A
S113A5401A007B181B78D318303B7B6506E07B6EC2
S113A550013B7B665B23FB1801221A705B217B188D
S113A5601B7801225340DBB2002BD4D17B6E013324
S113A5707B667B6E1B782E2B31D100233B657B18C9
S113A58000221A7022E07B6E01337B6649217B181E
S113A5907A6E12781A707B181B782F2B0FD97B18C0
S113A5A01B78392B0BD83A6D13009B009B185B006A
S113A5B01A007B181B78D318303B3B6506E07B6E92
S113A5C0013B7B665B23FB1801221A705B23FB189B
S113A5D01B7801225340DBB2002BD4D102E07B6E06
S113A5E0013B7B667B6E01337B6649217B187A6E67
S113A5F012781A700A00BB181B78642B24D0BB187D
S113A6001B78692B20D0BB181B78662B1CD0BB1879
S113A6101B78462B18D0BB181B78782B14D0BB188A
S113A6201B78582B10D0BB181B786F2B0CD0BB1881
S113A6301B78622B08D0BB181B78702B04D0BB1876
S113A6401B78752B00D0C6E04922BB181B78642BFD
S113A65003D0BB181B78692B16D17B681A1D7A604E
S113A6601B68BB611823F918202438194B23FB18E5
S113A6701B7800930A230122FFF7B2FE0300FB6557
S113A6803A19FB6DD3183B664922BB181B78582B2B
S113A69003D0BB181B78782B1FD14923FB181B78D8
S113A6A0782B03D14B23FB1800221A707B681A1DE8
S113A6B07A601B687B611423F918202438194B2312
S113A6C0FB181B78009310230022FFF789FE030078
S113A6D0FB653A19FB6DD3183B664922BB181B78FE
S113A6E06F2B0BD0BB181B78622B07D0BB181B78C1
S113A6F0702B03D0BB181B78752B4ED14923FB1844
S113A7001B78702B0DD17B681A1D7A601B683B6126
S113A7101023F9181423FB180422180000F002F97E
S113A72004E07B681A1D7A601B687B614923FB186F
S113A7301B78752B16D01ADC702B0ED017DC622B0D
S113A74006D06F2B13D14A23FB1808221A700FE08E
S113A7504A23FB1802221A700AE04A23FB1810222B
S113A7601A7005E04A23FB180A221A7000E0C0465A
S113A7704A23FB181A781423F918202438194B2378
S113A780FB181B78009313000022FFF729FE030037
S113A790FB653A19FB6DD3183B667A6D1C23F818D8
S113A7A0F96DFB68009303002020FFF7F5FD3B6E75
S113A7B0002B59D00AE03B6E5A1E3A661B781A00E9
S113A7C0FB6810009847FB690133FB613B6E1B7803
S113A7D0002BF0D148E04923FB181B78632B0CD1E4
S113A7E07B681A1D7A601B687B647A6CFB681000B6
S113A7F09847FB690133FB6136E04923FB181B785A
S113A800732B28D17B681A1D7A601B68FB64FB6C70
S113A810002B29D0FB6C1800FFF7A2FB0300FB659B
S113A8207A6D1C23F818F96DFB680093030020204F
S113A830FFF7B2FD0AE0FB6C5A1CFA641B781A009D
S113A840FB6810009847FB690133FB61FB6C1B78C4
S113A850002BF0D108E04923FB181A78FB6810009C
S113A8609847FB690133FB617B6E01337B662CE601
S113A870C046FB691800BD461BB090BD80B582B0D0
S113A88000AF786039607B683A68DA60C046BD46DC
S113A89002B080BD80B584B000AFF860B960FB1D24
S113A8A01A70FB1D1B78002B05D10122BB689A404E
S113A8B0FB689A6004E00122BB689A40FB685A6016
S113A8C0C046BD4604B080BD80B582B000AF78609C
S113A8D07B689B6802221A437B689A607B689B684A
S113A8E0022293431A007B689A60C046BD4602B0B8
S113A8F080BD80B500AFC046BD4680BD80B500AF09
S113A900FFF712FAC046BD4680BD80B500AFFFF721
S113A91095FAC046BD4680BD10B5FFF7BDFAFDF7F8
S113A920D3FE10BD10B500F061F810BD10B500F0F5
S113A93073F810BD10B5002811D080210C384905DA
S113A94001608268002A0AD013688B4207D14368E9
S113A950546803331B19436093688360F1E710BDA7
S113A96010B50400FFF7FCFA0100200000F072F8B3
S113A97010BD03000B4321D4002931D00122D2079A
S113A980030901E0090112099942FBD9430801E0D6
S113A990490052089942FBD900E04908401A07D3FC
S113A9A05241FAD301461046704749084018F7D27D
S113A9B09218FAD34018014610467047CB0F00D0C6
S113A9C04942021000D54042534008B5FFF7D4FF76
S113A9D00CBC521000D34042002A00D5494218470B
S113A9E0F446002000F001F860477047844683076E
S113A9F008D18B0706D1131F04D304C904C0043B38
S113AA00FBD21A1D524205D0891A801A8B5C8354DA
S113AA100132FBD1604670478446043A09D3830768
S113AA2007D109060B0A19430B0C1943043A02C057
S113AA30FCD2043203D001700130013AFBD16046EC
S113AA407047012040427047012040427047012076
S113AA504042704701204042704701204042704705
S113AA6001204042704710007047FFFF4153534597
S113AA705254204552524F522022202573200A005E
S113AA8066736C5F636C6F636B2E633A3138362088
S113AA903A207265672026205043435F434C4B4362
S113AAA046475F50525F4D41534B000066736C5FE5
S113AAB0636C6F636B2E633A323738203A20636FCE
S113AAC06E6669670000000066736C5F636C6F6399
S113AAD06B2E633A333834203A20675F7874616CA4
S113AAE0304672657100000066736C5F636C6F635F
S113AAF06B2E633A343438203A20636F6E6669678C
S113AB000000000066736C5F636C6F636B2E633AC6
S113AB10353835203A20636F6E666967000000009F
S113AB2066736C5F636C6F636B2E633A37343820E3
S113AB303A20636F6E6669670000000066736C5F9D
S113AB406770696F2E633A313139203A204E554C83
S113AB504C20213D20636F6E6669670066736C5FED
S113AB60636C6F636B2E683A353936203A20282A95
S113AB7028766F6C6174696C652075696E74333204
S113AB805F74202A29282875696E7433325F74290A
S113AB906E616D6529292026205043435F434C4B49
S113ABA04346475F50525F4D41534B0066736C5FA1
S113ABB06C70756172742E633A323135203A2069B3
S113ABC06E7374616E6365203C2041525241595F3B
S113ABD053495A4528735F6C70756172744261738E
S113ABE06573290066736C5F6C70756172742E6393
S113ABF03A333631203A204E554C4C20213D2063C7
S113AC006F6E66696700000066736C5F6C707561D7
S113AC1072742E633A333632203A203055203C2069
S113AC20636F6E6669672D3E626175645261746517
S113AC305F4270730000000066736C5F6C70756136
S113AC4072742E633A333634203A202875696E7450
S113AC50385F742946534C5F464541545552455F0D
S113AC604C50554152545F4649464F5F53495A45EB
S113AC706E286261736529203E20636F6E66696782
S113AC802D3E74784669666F57617465726D6172A2
S113AC906B00000066736C5F6C70756172742E6378
S113ACA03A333635203A202875696E74385F742932
S113ACB046534C5F464541545552455F4C505541AF
S113ACC052545F4649464F5F53495A456E28626164
S113ACD0736529203E20636F6E6669672D3E727826
S113ACE04669666F57617465726D61726B0000002E
S113ACF066736C5F6C70756172742E633A363533AB
S113AD00203A204E554C4C20213D20636F6E6669DD
S113AD106700000066736C5F6C70756172742E63FB
S113AD203A31303835203A204E554C4C20213D20C4
S113AD30646174610000000066736C5F6C7075611F
S113AD4072742E633A31323130203A204E554C4CD5
S113AD5020213D20646174610000000066736C5F13
S113AD60616461707465725F6C70756172742E6376
S113AD703A363938203A204E554C4C20213D206833
S113AD80616E646C6500000066736C5F6164617081
S113AD907465725F6C70756172742E633A363939FA
S113ADA0203A204E554C4C20213D20756172745F31
S113ADB0636F6E666967000066736C5F61646170DF
S113ADC07465725F6C70756172742E633A373030DB
S113ADD0203A20756172745F636F6E6669672D3EF9
S113ADE0696E7374616E6365203C202873697A65AB
S113ADF06F6628735F4C707561727441646170741E
S113AE0065724261736529202F2073697A656F66C4
S113AE10284C50554152545F54797065202A292991
S113AE200000000066736C5F616461707465725F3A
S113AE306C70756172742E633A373031203A204E4B
S113AE40554C4C20213D20735F4C707561727441E8
S113AE50646170746572426173655B756172745F7D
S113AE60636F6E6669672D3E696E7374616E6365A8
S113AE705D00000066736C5F616461707465725F8D
S113AE806C70756172742E633A373738203A204EED
S113AE90554C4C20213D2068616E646C65000000B7
S113AEA066736C5F616461707465725F6C70756108
S113AEB072742E633A373739203A204E554C4C2061
S113AEC0213D20646174610066736C5F616461702C
S113AED07465725F6C70756172742E633A373830C2
S113AEE0203A206C656E677468203E20305500005F
S113AEF066736C5F616461707465725F6C707561B8
S113AF0072742E633A373933203A204E554C4C2014
S113AF10213D2068616E646C6500000066736C5F9F
S113AF20616461707465725F6C70756172742E63B4
S113AF303A373934203A204E554C4C20213D206478
S113AF406174610066736C5F616461707465725FE3
S113AF506C70756172742E633A373935203A206CFF
S113AF60656E677468203E2030550000433A5C5596
S113AF70736572735C7068616D645C446F63756D56
S113AF80656E74735C4D43555870726573736F4985
S113AF9044455F32342E392E32355C776F726B73D1
S113AFA0706163655C617070315F6C65645F626C75
S113AFB0696E6B795C647269766572732F66736C03
S113AFC05F636C6F636B2E683A363237203A2072B7
S113AFD065672026205043435F434C4B4346475FFD
S113AFE050525F4D41534B00433A5C557365727345
S113AFF05C7068616D645C446F63756D656E7473D9
S113B0005C4D43555870726573736F4944455F32A4
S113B010342E392E32355C776F726B7370616365D1
S113B0205C617070315F6C65645F626C696E6B79D2
S113B0305C647269766572732F66736C5F636C6FA0
S113B040636B2E683A373334203A20636F6E666937
S113B05067000000433A5C55736572735C70686105
S113B0606D645C446F63756D656E74735C4D4355BC
S113B0705870726573736F4944455F32342E392EAC
S113B08032355C776F726B73706163655C6170708D
S113B090315F6C65645F626C696E6B795C64726964
S113B0A0766572732F66736C5F636C6F636B2E6867
S113B0B03A373534203A20636F6E666967000000C2
S113B0C0433A5C55736572735C7068616D645C448B
S113B0D06F63756D656E74735C4D4355587072651E
S113B0E073736F4944455F32342E392E32355C77A1
S113B0F06F726B73706163655C617070315F6C65F6
S113B100645F626C696E6B795C6472697665727394
S113B1102F66736C5F636C6F636B2E683A353936D8
S113B120203A20282A28766F6C6174696C65207532
S113B130696E7433325F74202A29282875696E7405
S113B14033325F74296E616D6529292026205043AE
S113B150435F434C4B4346475F50525F4D41534B13
S113B16000000000433A5C55736572735C7068615B
S113B1706D645C446F63756D656E74735C4D4355AB
S113B1805870726573736F4944455F32342E392E9B
S113B19032355C776F726B73706163655C6170707C
S113B1A0315F6C65645F626C696E6B795C64726953
S113B1B0766572732F66736C5F706F72742E683A63
S113B1C0333632203A20636F6E66696700FFFFFFF3
S113B1D080841E0000127A00006CDC02006CDC0229
S113B1E000A0064000B0064000C00640A85106403A
S113B1F0AC510640B051064000A0064000B00640E5
S113B20000C006400100000002010000010000052A
S113B21000127A0000000000050104000100000093
S113B2200201000001000000010000000000000015
S113B230010200000000000003000000720077001B
S107B240006CDC02BC
S90380D5A7
