S02B0000433A5C55736572735C5468696E6B5061645C446F63756D656E74735C4D43555870726573736F4944AA
S113800000180020D580000043810000758800001E
S1138010000000000000000000000000000000005C
S11380200000000000000000000000004781000084
S11380300000000000000000498100000D870000DE
S11380404F810000578100005F81000067810000BC
S11380506F810000778100007F810000878100002C
S11380608F810000978100009F810000A78100009C
S1138070AF810000B7810000BF810000C78100000C
S1138080CF810000D7810000DF810000E78100007C
S1138090EF810000F7810000FF81000007820000EB
S11380A00F82000017820000398800002782000038
S11380B02F820000378200003F82000047820000C8
S11380C04CA3000080F8FF1F0800000088F8FF1F81
S11380D00C01000072B600F0E5FD0E4B07E01868D5
S11380E059681C000C349A6800F01AF823000A4AF4
S11380F09342F4D306E018681C000834596800F071
S113810018F82300054A9342F5D362B601F014FF30
S1138110FEE7C046C0800000CC800000D480000090
S113812010B5002302E010C810C104339342FAD3FF
S113813010BD002302E0002204C004338B42FAD3B2
S11381407047FEE7FEE7FEE7FEE7FEE7FEE710B551
S1138150FFF7FCFF10BD10B5FFF7F8FF10BD10B519
S1138160FFF7F4FF10BD10B5FFF7F0FF10BD10B519
S1138170FFF7ECFF10BD10B5FFF7E8FF10BD10B519
S1138180FFF7E4FF10BD10B5FFF7E0FF10BD10B519
S113819000F010FD10BD10B5FFF7D8FF10BD10B5ED
S11381A0FFF7D4FF10BD10B5FFF7D0FF10BD10B519
S11381B000F042FD10BD10B500F050FD10BD10B52B
S11381C000F05EFD10BD10B5FFF7C0FF10BD10B587
S11381D0FFF7BCFF10BD10B5FFF7B8FF10BD10B519
S11381E0FFF7B4FF10BD10B5FFF7B0FF10BD10B519
S11381F0FFF7ACFF10BD10B5FFF7A8FF10BD10B519
S1138200FFF7A4FF10BD10B5FFF7A0FF10BD10B518
S1138210FFF79CFF10BD10B5FFF798FF10BD10B518
S1138220FFF794FF10BD10B5FFF790FF10BD10B518
S1138230FFF78CFF10BD10B5FFF788FF10BD10B518
S1138240FFF784FF10BD10B5FFF780FF10BDFFFFDF
S1138250FFFFFFFFFFFFFFFFFFFFFFFFFFFFFFFF2A
S1138260FFFFFFFFFFFFFFFFFFFFFFFFFFFFFFFF1A
S1138270FFFFFFFFFFFFFFFFFFFFFFFFFFFFFFFF0A
S1138280FFFFFFFFFFFFFFFFFFFFFFFFFFFFFFFFFA
S1138290FFFFFFFFFFFFFFFFFFFFFFFFFFFFFFFFEA
S11382A0FFFFFFFFFFFFFFFFFFFFFFFFFFFFFFFFDA
S11382B0FFFFFFFFFFFFFFFFFFFFFFFFFFFFFFFFCA
S11382C0FFFFFFFFFFFFFFFFFFFFFFFFFFFFFFFFBA
S11382D0FFFFFFFFFFFFFFFFFFFFFFFFFFFFFFFFAA
S11382E0FFFFFFFFFFFFFFFFFFFFFFFFFFFFFFFF9A
S11382F0FFFFFFFFFFFFFFFFFFFFFFFFFFFFFFFF8A
S1138300FFFFFFFFFFFFFFFFFFFFFFFFFFFFFFFF79
S1138310FFFFFFFFFFFFFFFFFFFFFFFFFFFFFFFF69
S1138320FFFFFFFFFFFFFFFFFFFFFFFFFFFFFFFF59
S1138330FFFFFFFFFFFFFFFFFFFFFFFFFFFFFFFF49
S1138340FFFFFFFFFFFFFFFFFFFFFFFFFFFFFFFF39
S1138350FFFFFFFFFFFFFFFFFFFFFFFFFFFFFFFF29
S1138360FFFFFFFFFFFFFFFFFFFFFFFFFFFFFFFF19
S1138370FFFFFFFFFFFFFFFFFFFFFFFFFFFFFFFF09
S1138380FFFFFFFFFFFFFFFFFFFFFFFFFFFFFFFFF9
S1138390FFFFFFFFFFFFFFFFFFFFFFFFFFFFFFFFE9
S11383A0FFFFFFFFFFFFFFFFFFFFFFFFFFFFFFFFD9
S11383B0FFFFFFFFFFFFFFFFFFFFFFFFFFFFFFFFC9
S11383C0FFFFFFFFFFFFFFFFFFFFFFFFFFFFFFFFB9
S11383D0FFFFFFFFFFFFFFFFFFFFFFFFFFFFFFFFA9
S11383E0FFFFFFFFFFFFFFFFFFFFFFFFFFFFFFFF99
S11383F0FFFFFFFFFFFFFFFFFFFFFFFFFFFFFFFF89
S1138400FFFFFFFFFFFFFFFFFFFFFFFFFEFFFFFF79
S113841080B584B000AF78600023FB6001235B4229
S1138420BB607A68064B1100180001F016F9BA68AF
S1138430F9687B68180001F0CFF800BEFDE7C0467C
S11384408CA00000B0B584B000AF786039607B6860
S1138450002BFCD03B68002B01D1002317E00E4B0E
S11384601B68002B01D1002311E00E257C193A680A
S113847079680A4B180001F026FD030023807B195C
S11384801B88002B01D13B6801E001235B421800EB
S1138490BD4604B0B0BDC046A8F8FF1FA0F8FF1F3A
S11384A0F0B5A5B000AF78603960002388243A198C
S11384B0136000238C26BA19136008257B19180051
S11384C080231A00002101F041FD0F4B1B68002B93
S11384D012D00E4B7A193968786801F003FB030057
S11384E03A1913603B191A687B1911001800FFF739
S11384F0A9FF0300BA1913608C23FB181B6818002A
S1138500BD4625B0F0BDC046A8F8FF1FEF9500009A
S113851080B582B000AF0200FB1D1A70FB1D1B78F2
S11385207F2B09D8FB1D1B781A001F231A40044B0C
S1138530012191400A001A60C046BD4602B080BDC8
S113854000E100E090B583B000AF02003960FB1D8C
S11385501A70FB1D1B787F2B28D82F4AFB1D1B7814
S11385605BB29B08C0339B009B58FA1D1278110024
S113857003220A40D200FF2191400A00D2431A404C
S113858011003B689B01FF221A40FB1D1B78180059
S113859003230340DB009A401F48FB1D1B785BB29A
S11385A09B080A43C0339B001A5031E01B4AFB1D51
S11385B01B7819000F230B40083B9B0806339B00D4
S11385C0D31804331B68FA1D1278110003220A40E1
S11385D0D200FF2191400A00D2431A4011003B68A7
S11385E09B01FF221A40FB1D1B7818000323034044
S11385F0DB009A400948FB1D1B781C000F23234015
S1138600083B9B080A4306339B00C31804331A60D3
S1138610C046BD4603B090BD00E100E000ED00E0BF
S113862080B582B000AF78607B685A1E80235B04FB
S11386309A4201D3012310E00A4B7A68013A5A6046
S113864001235B4203211800FFF77CFF054B002246
S11386509A60044B07221A6000231800BD4602B03A
S113866080BDC04610E000E080B500AF01F05DFCC5
S113867001F056FC00F0BAFC1A2001F09EFB0E4BF0
S11386801800FFF7CDFF031E01D0C046FDE70B4BDA
S113869000221A8008E0094B1B889AB2FA239B0037
S11386A09A4201D300F00EF8054B0221180001F0A4
S11386B0B9FB031EEFD0EAE780BB000090F9FF1F6F
S11386C0C0F00F4080B500AF0E4B1B78002B03D1D8
S11386D00C4B02221A700EE00A4B1B78012B03D1BB
S11386E0084B00221A7006E0064B1B78022B02D1BD
S11386F0044B01221A70044B00221A80C046BD4666
S113870080BDC04692F9FF1F90F9FF1F80B500AFEE
S1138710424B1B68002B05D0404B1B685A1E3F4B35
S11387201A6071E03E4B1B78002B1AD13D4B1B782D
S113873001225340DBB2002B06D03B4B0022052123
S1138740180001F055FB05E0374B01220521180004
S113875001F04EFB354B01220121180001F048FBCA
S11387603CE02F4B1B78012B1AD12E4B1B78012296
S11387705340DBB2002B06D02C4B00220121180001
S113878001F036FB05E0294B01220121180001F01C
S11387902FFB254B01220421180001F029FB1DE0C9
S11387A01F4B1B78022B19D11E4B1B7801225340FF
S11387B0DBB2002B06D01C4B00220421180001F070
S11387C017FB05E0184B01220421180001F010FBEF
S11387D0154B01220521180001F00AFB114B1B78EF
S11387E05A1E9341DBB201225340DBB21A1C01230F
S11387F01340DAB20B4B1A700D4B1B889BB25B080B
S11388009BB21A00054B1A600A4B1B889BB20133BA
S11388109AB2084B1A80C046BD4680BDACF8FF1F13
S113882092F9FF1F93F9FF1F40F00F40C0F00F4073
S113883084F8FF1F90F9FF1F80B500AF0B4B1B8816
S11388409BB2FA2B04D8094BFA2292001A8006E054
S1138850064B1B889BB2FA3B9AB2044B1A80044A1B
S1138860A0230821D150C046BD4680BD84F8FF1F17
S113887000C0044004207146084202D0EFF309808E
S113888001E0EFF3088081690A88074B9A4200D01F
S1138890FEE7023181610168012901D0002100E075
S11388A0202101607047C046ABBE000080B584B093
S11388B000AF78607B68002B03D11A4B1800FFF7D8
S11388C0A7FD00F033F80300FB60FB68002B23D105
S11388D07B681B791A021449E023DB001A408123C8
S11388E09B00CA507B685B791A000F4901231A4028
S11388F082239B00CA507B681B680B4901221A43E0
S113890080239B00CA50C046074A80239B00D2584C
S113891080235B041340F7D0FB681800BD4604B005
S113892080BDC046A0A000000040064080B582B0D3
S113893000AF104A80239B00D3583B603A688023E1
S11389409B04134002D00C4B7B600EE03A688023FA
S11389501B04134002D002237B6006E0054A8023F7
S11389609B000021D15000237B607B681800BD462A
S113897002B080BD004006403508000080B584B0D8
S113898000AF78607B68002B03D13E4B1800FFF7E3
S11389903FFD00F07BF80300FB60FB68002B01D077
S11389A0FB686AE07B681B791A023749E023DB0025
S11389B01A40C1239B00CA507B685B791A00324974
S11389C003231A40C2239B00CA507B689B68002B78
S11389D03CD07B689B68DB781A02E023DB001A40FA
S11389E07B689B689B78190003230B4026491A4334
S11389F0C3239B00CA507B689B681A8880235B0052
S1138A009A4211D17B689B681B791A02FC239B0153
S1138A101A407B689B685B7919007F230B401A49D5
S1138A201A43C6239B00CA507B689B681B88164A5E
S1138A301900C0239B00D150134AC0239B00D25875
S1138A408023DB04134001D0012316E00E4AC02327
S1138A509B00D2587B681B6813430B4901221A43BD
S1138A60C0239B00CA50C046074AC0239B00D2586B
S1138A7080235B041340F7D000231800BD4604B0E4
S1138A8080BDC046BCA000000040064080B582B056
S1138A9000AF114AC0239B00D3583B6000237B6086
S1138AA03A6880239B04134002D00C4B7B600DE09A
S1138AB03A6880231B04134002D002237B6005E044
S1138AC00549C0239B008022D204CA507B68180049
S1138AD0BD4602B080BDC0460040064035080000D7
S1138AE080B584B000AFF860B9607A607B68002B11
S1138AF003D1134B1800FFF78BFC7B681B78002B0A
S1138B000AD1FB685B690121BA6891400A00D2432B
S1138B101A40FB685A610FE07B685A78B968FB68B1
S1138B20180001F08FF9FB685A690121BB6899406C
S1138B300B001A43FB685A61C046BD4604B080BDB1
S1138B40D8A0000080B582B000AF786039607B683F
S1138B501B69012213400CD0124B1B68002B08D058
S1138B60104B1B68104A3968890089587A681000CC
S1138B7098477A6888235B00D358012213400CD0AD
S1138B800A4B1B68002B08D0084B1B68084A39683D
S1138B90890089587A6810009847C046BD4602B0DB
S1138BA080BDC046B0F8FF1FB4F8FF1FB8F8FF1F20
S1138BB0BCF8FF1F80B500AF034B00211800FFF77E
S1138BC0C1FFC046BD4680BD0060064080B586B08A
S1138BD000AFF860B9607A60BB68002B03D1154B15
S1138BE01800FFF715FCBB687B617B683B6111E0F3
S1138BF0C046FB685A6980231B041340F9D07B6983
S1138C001B781A00FB68DA617B6901337B613B697D
S1138C10013B3B613B69002BEAD1C046FB685A69C2
S1138C208023DB031340F9D000231800BD4606B0AF
S1138C3080BDC046F8A0000080B500AF044B1A68A0
S1138C40044B1B68044819009047C046BD4680BDCC
S1138C50CCF8FF1FC0F8FF1F00A0064080B500AF8E
S1138C60044B5A68044B5B68044819009047C0469B
S1138C70BD4680BDCCF8FF1FC0F8FF1F00B0064002
S1138C8080B500AF044B9A68044B9B6804481900F4
S1138C909047C046BD4680BDCCF8FF1FC0F8FF1FFB
S1138CA000C0064080B500AF104B1A6880239B01BA
S1138CB0134003D00D4B0E4A5A6005E00B4B0D4A8E
S1138CC05A600A4B0C4A5A60084B0C4A9A60074B8C
S1138CD01B68A02293431A00044B20210A431A6004
S1138CE001F0CAF8C046BD4680BDC046002005401C
S1138CF020C528D920C5000028D90000FFFF0000A6
S1138D0080B586B000AFF860B9607A60FB68002B6C
S1138D1003D1124B1800FFF77BFBBB68002B03D178
S1138D200F4B1800FFF774FB7B68002B03D10D4B2E
S1138D301800FFF76DFBFB687B617B691B781A00E9
S1138D40094B9200D3587A68B9681800FFF73EFFC0
S1138D5000231800BD4606B080BDC0461CA100001B
S1138D6048A1000070A1000014A3000090B587B0D2
S1138D7000AFF860B9607A603B6016217B180B4A3B
S1138D801A80FB681B78012B09D1FB680C337C1813
S1138D903A687968180001F0A7F8030023801623C5
S1138DA0FB181B881800BD4607B090BD2135000094
S1138DB080B584B000AF78607B68002B03D1074B8B
S1138DC01800FFF725FB7B68FB60FB68044A1B68FF
S1138DD05361C046BD4604B080BDC04698A10000A2
S1138DE00040064080B584B000AF78607B68002BFB
S1138DF003D1074B1800FFF70BFB7B68FB60054AA8
S1138E00FB6812691A60C046BD4604B080BDC04606
S1138E1004A2000000400640B0B586B000AF786000
S1138E200C243B192D4A03CA03C30023BB60082545
S1138E307B191A780F218A43111C03220A431A70E2
S1138E400B23FB181A780F218A43111C02220A43B0
S1138E501A703B191800FFF729FD7B191800FFF75A
S1138E60A7FF1423FB181800FFF7BCFF1723FB18F8
S1138E701B781B071B0FDAB20B243B191B781B074B
S1138E801B0FDBB29A42ECD17B681800FFF776FD2A
S1138E903B191A780F218A43111C03220A431A70C2
S1138EA00823FB181800FFF783FF1423FB1818008E
S1138EB0FFF798FF1723FB181B781B071B0FDAB269
S1138EC00B23FB181B781B071B0FDBB29A42ECD158
S1138ED0C046C046BD4606B0B0BDC04620A3000093
S1138EE080B582B000AF0F4B1800FFF795FF0E4B13
S1138EF01800FFF7DBFC0D4B1800FFF759FF3B1D73
S1138F001800FFF76FFFFB1D1B781B071B0FDBB25D
S1138F1003229342F3D1064B064A1A60C046BD466B
S1138F2002B080BD34A300002CA3000028A30000DD
S1138F3080F8FF1F006CDC0280B582B000AF78605F
S1138F407B681B68002B03DB074B1800FFF760FAF4
S1138F507B681A687B688021C9050A431A60C04689
S1138F60BD4602B080BDC04670A2000080B584B08A
S1138F7000AFF860B960FB1D1A70FB68BA68920014
S1138F80D358094A1A40FB1D1B781902E023DB0061
S1138F900B401A431100FB68BA689200D150C046D6
S1138FA0BD4604B080BDC046FFF8FFFF80B584B065
S1138FB000AFF860B960FB1D1A70FB68BA689200D4
S1138FC0D358094A1A40FB1D1B781904F0231B03CC
S1138FD00B401A431100FB68BA689200D150C04696
S1138FE0BD4604B080BDC046FFFFF0FF80B586B02B
S1138FF000AF434B1800FFF79FFF424B1800FFF7E9
S11390009BFF14217B18404A12881A807B183F4822
S11390101A000421FFF764FD10217B183A4A1288D4
S11390201A807B1839481A000521FFF759FD0C21D5
S11390307B18354A12881A807B1835481A0001219A
S1139040FFF74EFD08217B1800221A707B180022BE
S11390505A707B182E481A000221FFF741FD3B1D70
S113906000221A703B1D00225A703B1D28481A002A
S11390700321FFF735FD274B022200211800FFF7DB
S113908075FF244B022201211800FFF76FFF214BCB
S1139090012204211800FFF769FF1E4B012205215C
S11390A01800FFF763FF1C4B012201211800FFF792
S11390B05DFF194B012202211800FFF757FF164BE1
S11390C09B68164A1A40144B01210A439A60124BBA
S11390D0012203211800FFF749FF0F4B0A22032145
S11390E01800FFF763FF0C4BDB680C4A1A400A4B6D
S11390F001210A43DA60C046BD4606B080BDC046C1
S1139100285106403051064040A3000040F00F4073
S1139110C0F00F4000A0044000C00440FEFFFFFE6A
S113912070B5184C18492200002000F0ABF88023D9
S113913080225B0000212000D20000F02FF8134CA5
S1139140134D22002900012000F09CF88023802286
S11391505B0000212000D20000F020F80D4B1B68BA
S1139160022B0DDD0C4C29002200022000F08AF8AD
S113917080238022002120005B00D20000F00EF842
S113918070BDC046DCF8FF1F48A3000018F9FF1F9C
S11391904AA3000044A3000054F9FF1FF0B5C568BA
S11391A004000120AE070CD080208000824213D03E
S11391B08020C000824205D08020400082420BD033
S11391C0FF38F0BD21000123243115430020216123
S11391D02160E361E560F4E7024F5E1E0120BE42B8
S11391E0F3D9EEE7FEFFFF000300032110B51A00D8
S11391F00B4219D1114C1368114959189943214252
S113920019D0DCB2511C002C0BD0FF242402911C79
S1139210234206D0FF2109040B40591E8B41D31869
S1139220D91C0130081A05E001335C1E2478002C97
S1139230DDD1101A10BD0432DDE7C0468080808085
S1139240FFFEFEFE2022C36810B59343C36082690B
S1139250836A04009A420CD000F04EF8E268074B8F
S11392601A4010231343E360A36AA3612369E362F2
S11392702360E368024A1340E36010BDEFCFFFFFB1
S1139280BFBFFFFFF7B50D0001901000140000F000
S113929095F82B78722B1CD0772B1DD0612B26D1FF
S11392A0144A593B0220691C0327844604260125DD
S11392B008782B2813D0622816D0E260019A6261E4
S11392C01B0704D502220021200000F0C5F820006D
S11392D0FEBD00230122E5E704230222E2E7604603
S11392E03A4303430131E3E732432B43FAE70024D3
S11392F0EDE7C0460280000070B50400134AE3683D
S113930005691A400168C06AE26082221A40022A92
S113931002D00120404270BDDB030CD5814200D253
S113932001008D4209D10023094AA360E368E56284
S113933013402560E3600020EDE722002800491B6C
S113934000F008F80028EED0E3E7C046FFFFF7FF7F
S1139350FFFFFEFFF7B5D5680F00140056690190B2
S1139360EB0205D5102330001D4300F07DFEA06103
S1139370104B1D420FD03000A16900F07EFE002882
S113938006DA80230120E26840421343E3600FE0E1
S1139390094B1D40E5603A003000019900F073FE6E
S11393A04300A2695B08FB1AD318A3610028E8D123
S11393B0FEBDC04610000200EFFFFDFFF0B5C5681A
S11393C004004769066989B0AB0720D02B0716D47F
S11393D000F022F8380000F044FE2B0502D53000DE
S11393E000F0B8FD0B4BAD0DAD059D4207D1202219
S11393F06846216A00F044FE684600F0C1FD3C2244
S11394000021200000F0A2FD002009B0F0BD0120E1
S11394104042FAE7000080ADF8B5002812D000F011
S1139420B7F805002800F8BD38006043084BC018A1
S113943000F0AEF8002801D001256D420134A642A7
S1139440F2DCEFE7034B040005003C271E68F6E757
S1139450DCF8FF1F44A30000F7B54369C668019315
S1139460364B04000D0000921E420BD0019800F010
S1139470FEFD071E06D1009B012B06D0022B2DD02A
S1139480002B06D002273800FEBD200000F05AF859
S11394902D18002DF6DBB30404D52368E26A9A4242
S11394A000D2E362A369AB420EDCE16A22688A421D
S11394B000D20A002169D0180091401AA84203DBA7
S11394C0206B1918A94228DC20231E430023A5621F
S11394D0A36063601A4B1E40E660D4E7019800F075
S11394E0C3FDE268002804DA802313430127E36004
S11394F0C9E7E16A2368994200D90B00A1695B18A6
S113950021695B1A920603D5A26A934200DA13001A
S1139510834200DA0300ED18BBE7EB1AB50701D567
S1139520181AA060F00703D50099521A9A1A6260BB
S1139530009AD118202321609E43CBE7030010003A
S1139540BFCFF7FFC16802008B0705D1212201209C
S11395500E4B40421A60704720230B4009030AD582
S1139560002B02D0806A0138F5E793690068C018BF
S11395701369C01AF7E7002B01D0806AEBE7036890
S1139580816900695B18181AE5E7C046D8F8FF1F1F
S1139590C36870B503221E0004001640134211D0A4
S11395A09B0611D5856AFFF74DFEE368094A200042
S11395B01340E360FFF7A0FE00220600290020000C
S11395C0FFF74AFF300070BD83690568ED18036931
S11395D0ED1AEAE7FFCFFFFF80B584B000AFF86073
S11395E0B9607A6000231800BD4604B080BD80B520
S11395F086B000AFF860B9603B60FB1D1A700023B1
S11396007B6100237B611FE0BB681B6801337F2BF8
S11396100AD9BB681B681A00FB6811001800FEF722
S113962011FFBB6800221A60BB681B681A00FB6844
S11396309B18FA1D12781A70BB681B685A1CBB6809
S11396401A607B6901337B617A693B689A42DBDB90
S1139650C046C046BD4606B080BD0FB480B582B0DA
S113966000AF00237B601423FB183B603A683B691E
S113967011001800FEF714FF03007B607B681800DC
S1139680BD4602B080BC08BC04B0184780B584B0A5
S113969000AF786039600023FB600B23FB180022C5
S11396A01A7027E07B681B685A1C7B681A607B6809
S11396B01A680A217B1812781A707B181B782F2BD2
S11396C00FD97B181B78392B0BD8FA6813009B0031
S11396D09B185B001A007B181B78D318303BFB6087
S11396E008E07B681B685A1E7B681A600B23FB1812
S11396F001221A700B23FB181B78002BD2D0FB68B5
S11397001800BD4604B080BD80B588B000AFF860D5
S1139710B9607A60FB681B68FB610623BB61172193
S11397207B1800221A70FB690133FB61FB691B780B
S11397302E2B2ED10023BB617B1800221A7022E04D
S1139740FB690133FB6116217B18FA6912781A70E0
S11397507B181B782F2B0FD97B181B78392B0BD830
S1139760BA6913009B009B185B001A007B181B78D6
S1139770D318303BBB6106E0FB69013BFB61172357
S1139780FB1801221A701723FB181B78002BD7D063
S113979002E0FB69013BFB61FB68FA691A60BB6983
S11397A01800BD4608B080BD80B584B000AF02008B
S11397B0FB1D1A700023FB60FB1D1B786F2B0BD065
S11397C0FB1D1B78622B07D0FB1D1B78702B03D06D
S11397D0FB1D1B78752B01D10123FB60FB6818006E
S11397E0BD4604B080BD80B584B000AF0200FB1D4F
S11397F01A700023FB60FB1D1B78642B03D0FB1D38
S11398001B78692B01D10123FB60FB681800BD465E
S113981004B080BD90B585B000AFF860B9607A60DF
S11398201A00FB1C1A70BA687B68D31AF96AB86A02
S11398307C6A2022A04708E03B6A5A1E3A621A78E2
S1139840F96AB86A7C6A0123A0473B6A1B78002B3B
S1139850F2D1C046C046BD4605B090BD90B585B0B6
S113986000AFF860B9607A601A00FB1C1A70BA681D
S11398707B68D31AF96AB86A7C6A2022A04708E098
S11398803B6A5A1E3A621A78F96AB86A7C6A0123FA
S1139890A0473B6A1B78002BF2D1C046C046BD46A8
S11398A005B090BD80B584B000AF0200FB1D1A70F6
S11398B00023FB60FB1D1B78662B03D0FB1D1B786C
S11398C0462B01D10123FB60FB681800BD4604B0A0
S11398D080BD80B584B000AF0200FB1D1A70002368
S11398E0FB60FB1D1B78782B03D0FB1D1B78582BCA
S11398F001D10123FB60FB681800BD4604B080BDA4
S113990080B584B000AF78607B681B68FB60FB683F
S11399100133FB600B217B18FA6812781A700A0075
S1139920BB181B78682BF2D0BB181B786C2BEED0BD
S1139930FB68013BFB607B68FA681A60C046BD4661
S113994004B080BD80B584B000AF0200FB1D1A7066
S1139950FB1D1B786F2B04D10F23FB1808221A70F0
S113996015E0FB1D1B78622B04D10F23FB18022288
S11399701A700CE0FB1D1B78702B04D10F23FB180D
S113998010221A7003E00F23FB180A221A700F2307
S1139990FB181B781800BD4604B080BD80B58EB09E
S11399A000AFF860B9607A603B600023FB62FB683B
S11399B0BB62BB6A5A1CBA6200221A7000237B6025
S11399C000237B6200233B620023FB6100237B6353
S11399D00023BB6100233B6300237B61BB681B68DE
S11399E07B637B6B002B31D1BB6A30221A70FB6A1C
S11399F00133FB62FB6A2DE03968786B00F0CCFA26
S1139A000300BB61BB693A6853437A6BD31A3B6367
S1139A103B6B092B03D83B6B30333B630BE0402398
S1139A20FB181B78002B01D0412300E061233A6B23
S1139A309B180A3B3B63BB697B63BB6A5A1CBA62D3
S1139A403A6BD2B21A70FB6A0133FB627B6B002B58
S1139A50D2D1FB6A1800BD460EB080BD80B582B07D
S1139A6000AF786039603B681B68191D3A68116063
S1139A701A687B681A60C046BD4602B080BD80B5D6
S1139A8082B000AF786039603B681B68191D3A6882
S1139A9011601A687B681A60C046BD4602B080BD7A
S1139AA080B582B000AF786039603B681B68191DCF
S1139AB03A6811601A687B681A60C046BD4602B0F5
S1139AC080BD80B584B000AF78600023FB607B6804
S1139AD01800FFF789FB0300FB60FB681800BD4614
S1139AE004B080BDF0B5A1B004AFF860B9607A608D
S1139AF03B6000237B6600233B6600233B6200231C
S1139B00FB650023BB61FB68BB64BB6C1B78002B4B
S1139B1000D14CE1BA6C5B217B1812781A700A00F0
S1139B20BB181B78252B0BD0BB181A782023F918E7
S1139B3078683C680123A047BB6C0133BB6435E102
S1139B406B26BB1901221A7008243A1948257B197F
S1139B5011001800FFF79AFD03007B6539197B1982
S1139B6000221800FFF7D0FD03003B657B191800A5
S1139B70FFF7C6FEBB6C0133BB64BA6C5B217B1878
S1139B8012781A707B181B781800FFF72CFE03005C
S1139B90012B26D13A191C243B1911001800FFF798
S1139BA05DFF391924243819BB191B7800930A2343
S1139BB00122FFF7F3FE03003B663A193B6ED3180C
S1139BC07B663A6E796D2023FB1803937B680293BE
S1139BD03B6801937B6E009300230020FFF71AFE7D
S1139BE0E1E05B23FB181B781800FFF75BFE030022
S1139BF0012B06D1BB680733072293430833BB60AC
S1139C00D1E05B243B191B781800FFF762FE0300C8
S1139C10012B32D13B191B78782B03D16B23FB1812
S1139C2000221A700823FA1818243B19110018008E
S1139C30FFF725FF3919242438196B257B191B7864
S1139C40009310230022FFF7A9FE03003B663A1994
S1139C503B6ED3187B663A6E7B191878796D202396
S1139C60FB1803937B6802933B6801937B6E00931C
S1139C7003000020FFF7F2FD95E05B243B191B78FD
S1139C801800FFF791FD0300012B44D13B191B7809
S1139C90702B0DD1BB681A1DBA601B687B6114233D
S1139CA0F9181823FB180422180000F04BF907E0F8
S1139CB00823FA181823FB1811001800FFF7F0FE08
S1139CC05B23FB181B781800FFF73CFE0300FB65C1
S1139CD0FA6D1823F918242438196B23FB181B7800
S1139CE0009313000022FFF759FE03003B663A1964
S1139CF03B6ED3187B663A6E796D2023FB18039371
S1139D007B6802933B6801937B6E009300230020E1
S1139D10FFF780FD47E05B23FB181B78632B0DD115
S1139D20BB681A1DBA601B68FB64FB6CDAB22023A3
S1139D30F91878683C680123A04734E05B23FB18DA
S1139D401B78732B26D1BB681A1DBA601B68FB668F
S1139D50FB6E002B27D0FB6E1800FFF7B2FE03004A
S1139D603B667A6D3B6ED31A2022B91878683C683A
S1139D702022A04709E0FB6E5A1CFA661A782023B9
S1139D80F91878683C680123A047FB6E1B78002B08
S1139D90F1D108E05B23FB181A782023F9187868BE
S1139DA03C680123A047BB6C0133BB64ADE6C046ED
S1139DB03B6A1800BD461DB0F0BD80B584B000AF4D
S1139DC00200FB1D1A700023FB60FB1D1B785BB2B5
S1139DD0803302D10123FB6005E0FB1D1B785BB2DD
S1139DE01800FEF795FBFB681800BD4604B080BD63
S1139DF080B584B000AFF860B960FB1D1A70FB1D1C
S1139E001B78002B05D10122BB689A40FB689A603D
S1139E1004E00122BB689A40FB685A60C046BD4614
S1139E2004B080BD80B582B000AF786039607B68D3
S1139E301A693B68DA401300012213401800BD463A
S1139E4002B080BD80B584B000AFF860B960FB1D7E
S1139E501A70FB1D1B78002B05D10122BB689A40A8
S1139E60FB689A6004E00122BB689A40FB685A6070
S1139E70C046BD4604B080BD80B500AFC046BD46F7
S1139E8080BD80B586B000AFF860B9607A60FB68C9
S1139E90002BFCD0BB68002BFCD07B68002BFCD0D3
S1139EA0FB687B617B691B683B613B69002BFCD0D1
S1139EB07B68BA6879693869FEF758FF03001800AF
S1139EC0BD4606B080BD80B584B000AFF860B9600F
S1139ED07A607A68B968FB681800FFF7D2FF03005C
S1139EE01800BD4604B080BD80B586B000AFF860F0
S1139EF0B9607A60FB68002BFCD0BB68002BFCD0F7
S1139F007B68002BFCD0FB687B617B697A68B9684D
S1139F101800FEF7F5FE03001800BD4606B080BD2C
S1139F2080B500AFC046BD4680BD80B500AFFEF72A
S1139F30D7FFC046BD4680BD10B5FFF7F1F8FEF768
S1139F4093FB10BD10B500F061F810BD10B500F022
S1139F5073F810BD10B5002811D080210C384905C4
S1139F6001608268002A0AD013688B4207D14368D3
S1139F70546803331B19436093688360F1E710BD91
S1139F8010B50400FFF730F90100200000F072F86A
S1139F9010BD03000B4321D4002931D00122D20784
S1139FA0030901E0090112099942FBD9430801E0C0
S1139FB0490052089942FBD900E04908401A07D3E6
S1139FC05241FAD301461046704749084018F7D267
S1139FD09218FAD34018014610467047CB0F00D0B0
S1139FE04942021000D54042534008B5FFF7D4FF60
S1139FF00CBC521000D34042002A00D549421847F5
S113A000F446002000F001F8604770478446830757
S113A01008D18B0706D1131F04D304C904C0043B21
S113A020FBD21A1D524205D0891A801A8B5C8354C4
S113A0300132FBD1604670478446043A09D3830752
S113A04007D109060B0A19430B0C1943043A02C041
S113A050FCD2043203D001700130013AFBD16046D6
S113A0607047012040427047012040427047012060
S113A07040427047012040427047012040427047EF
S113A08001204042704710007047FFFF4153534581
S113A0905254204552524F522022202573200A0048
S113A0A066736C5F636C6F636B2E633A3434382071
S113A0B03A20636F6E6669670000000066736C5F28
S113A0C0636C6F636B2E633A353835203A20636FC7
S113A0D06E6669670000000066736C5F6770696F85
S113A0E02E633A313139203A204E554C4C20213DD3
S113A0F020636F6E6669670066736C5F6C70756170
S113A10072742E633A31303835203A204E554C4C17
S113A11020213D20646174610000000066736C5F5F
S113A120616461707465725F6C70756172742E63C2
S113A1303A373933203A204E554C4C20213D206883
S113A140616E646C6500000066736C5F61646170CD
S113A1507465725F6C70756172742E633A3739344A
S113A160203A204E554C4C20213D206461746100FE
S113A17066736C5F616461707465725F6C70756145
S113A18072742E633A373935203A206C656E6774E1
S113A19068203E2030550000433A5C557365727365
S113A1A05C5468696E6B5061645C446F63756D6583
S113A1B06E74735C4D43555870726573736F494484
S113A1C0455F32342E392E32355C776F726B737083
S113A1D06163655C417373325F496E746572727555
S113A1E070745C647269766572732F66736C5F63F6
S113A1F06C6F636B2E683A373334203A20636F6E8A
S113A20066696700433A5C55736572735C546869A8
S113A2106E6B5061645C446F63756D656E74735CE2
S113A2204D43555870726573736F4944455F3234BA
S113A2302E392E32355C776F726B73706163655C97
S113A240417373325F496E746572727570745C64C5
S113A2507269766572732F66736C5F636C6F636B80
S113A2602E683A373534203A20636F6E666967008A
S113A270433A5C55736572735C5468696E6B5061E4
S113A280645C446F63756D656E74735C4D435558BF
S113A29070726573736F4944455F32342E392E32C0
S113A2A0355C776F726B73706163655C4173733295
S113A2B05F496E746572727570745C6472697665F8
S113A2C072732F66736C5F636C6F636B2E683A35C1
S113A2D03936203A20282A28766F6C6174696C65B7
S113A2E02075696E7433325F74202A2928287569B1
S113A2F06E7433325F74296E616D652929202620BE
S113A3005043435F434C4B4346475F50525F4D417C
S113A310534B00FF00A0064000B0064000C00640BA
S113A320010000000201000001000003050000001C
S113A3300001000001000000000000000000000017
S10FA3400101FFFF030000007200770021
S10BA34C006CDC02E803FFFFD2
S90380D5A7
